:100000000C9434000C9451000C9451000C94510049
:100010000C9451000C9451000C9451000C9451001C
:100020000C9451000C9451000C9451000C9451000C
:100030000C9451000C9451000C9481000C945100CC
:100040000C9451000C9451000C9451000C945100EC
:100050000C9451000C9451000C9451000C945100DC
:100060000C9451000C94510011241FBECFEFD8E026
:10007000DEBFCDBF11E0A0E0B1E0E8EFF4E102C0E7
:1000800005900D92A63BB107D9F712E0A6EBB1E0BF
:1000900001C01D92A733B107E1F70E94EA040C9456
:1000A0007A0A0C9400009C0140E050E060E472E4A5
:1000B0008FE090E00E946C05215031093093C5001B
:1000C0002093C40088E18093C1008EE08093C20039
:1000D00008959091C00095FFFCCF8093C6000895CD
:1000E0008091C0008091C6000895CF93DF93EC010A
:1000F0008991882319F00E946900FACFDF91CF918E
:1001000008951F920F920FB60F9211248F939F9311
:100110008091C3018F5F8093C3019091C2018917C1
:1001200014F45E9A01C05E988091C301843614F085
:100130001092C3019F918F910F900FBE0F901F904F
:100140001895E1E8F0E080818D7F8083089510921A
:10015000850010928400E1E8F0E080818260808375
:100160000895CF93DF93EC011092850010928400E4
:100170000E94A700CC0FDD1F809184009091850024
:100180008C179D07C8F3DF91CF910C94A100259A9D
:1001900024980E94A100109280001092810008957E
:1001A000CF93DF932D9882E090E00E94B1002D9ACA
:1001B0008CE090E00E94B1002D981C9BFECF109225
:1001C0008500109284000E94A7001C99FECFC09168
:1001D0008400D09185000E94A100CE01969587955C
:1001E000DF91CF9108952F923F924F925F926F923D
:1001F0007F928F929F92AF92BF92CF92DF92EF92B7
:10020000FF920F931F93CF93DF9300D000D000D0C5
:10021000CDB7DEB79A8389837C836B839E838D837E
:1002200000E010E0EB81FC810E171F07C4F50F5FA3
:100230001F4F7801C12CD12CEB81FC81EE16FF06FB
:1002400041F1ED81FE8180809180A280B3803F01E9
:100250006C0C7D1CF3012480358046805780A20100
:100260009101C501B4010E94420718165CF4ED81AA
:10027000FE812082318242825382F3018482958200
:10028000A682B782FFEFEF1AFF0A84E0C80ED11CE6
:10029000D3CF8D819E8104969E838D83C3CFE981C8
:1002A000FA81608571858285938526960FB6F894CC
:1002B000DEBF0FBECDBFDF91CF911F910F91FF9099
:1002C000EF90DF90CF90BF90AF909F908F907F90F6
:1002D0006F905F904F903F902F9008959B01AC01DD
:1002E00060E070E088E991E40E948E0520E030E053
:1002F00040E251E40E94F70525EB33EC40E95FE36F
:100300000E94460708954F925F926F927F928F925C
:100310009F92AF92BF92CF92DF92EF92FF92CF93D4
:10032000DF9320E030E048EC52E40E9446072B01C6
:100330003C0120E030E04AE754E40E94F7050E94C7
:100340005F064B015C0188EE93E0889DE001899D8A
:10035000D00D989DD00D1124BE01882777FD809582
:10036000982F0E9492069B01AC01C301B2010E942A
:100370008E0520E030E048EC52E40E94F7050E9430
:100380005F066B017C0184E68C9DB0018D9D700D34
:1003900011246C0F7D1F882777FD8095982F0E9470
:1003A00092069B01AC01C301B2010E948E0520E0C0
:1003B00030E040E251E40E94F7050E945F062AE027
:1003C000289DC001299D900D11248C0D9D1D683024
:1003D00071050CF00196DF91CF91FF90EF90DF90C7
:1003E000CF90BF90AF909F908F907F906F905F90D5
:1003F0004F900895CF92DF92EF92FF920F931F9349
:10040000CF93DF93CDB7DEB764970FB6F894DEBF16
:100410000FBECDBF8E010F5F1F4F84E1F801119217
:100420008A95E9F778016E01F5E1CF0ED11C0E94A3
:10043000D000BC01882777FD8095982F0E949206F6
:1004400024E037EE4CE85CE30E944607F701619335
:100450007193819391937F01EC15FD0541F765E060
:1004600070E0C8010E94F3000E9483014397ACF43E
:1004700065E070E0C8010E94F30064960FB6F8943E
:10048000DEBF0FBECDBFDF91CF911F910F91FF90C7
:10049000EF90DF90CF900C94830183E190E064961D
:1004A0000FB6F894DEBF0FBECDBFDF91CF911F9185
:1004B0000F91FF90EF90DF90CF90089585B5856004
:1004C00085BD089585B58A7F85BD0895CF92DF9259
:1004D000EF92FF926B017C0120E030E040E05FE3AF
:1004E0000E94F30587FF03C05A9A5B9A5C9A20E04A
:1004F00030E040E05FE3C701B6010E9442071816F2
:100500001CF45A985B9A5C9A20E030E040E85FE384
:10051000C701B6010E94420787FD03C05A985B9845
:100520005C9A2AE939E949E95FE3C701B6010E940B
:10053000420787FD03C05A985B985C98FF90EF9044
:10054000DF90CF9008958091C8018330C1F048F4C6
:10055000813081F0823029F583E393E3A3E3BFE3A5
:1005600017C0843089F08530E1F483E393E3A3EB93
:10057000BFE30EC080E090E0A0E0BFE309C080E0F0
:1005800090E0A0E8BFE304C08AE999E9A9E9BFE3E4
:100590008093C4019093C501A093C601B093C70195
:1005A00008951092C4011092C5011092C6011092D4
:1005B000C7010895CF92DF92EF92FF9220E030E0E2
:1005C00048EC52E40E9446072091C4013091C501D5
:1005D0004091C6015091C7010E94F7056B017C0153
:1005E0008091CA018093C90120E030E040E752E4E5
:1005F000C701B6010E94F3051816D4F080E090E020
:10060000ACE8B2E48093CF019093D001A093D101E4
:10061000B093D20180E090E0A8ECB2E48093CB01EB
:100620009093CC01A093CD01B093CE0181E03DC069
:1006300020E030E040EA52E4C701B6010E94F30531
:1006400087FF1AC080E090E0A0E7B2E48093CF017A
:100650009093D001A093D101B093D20180E090E0BB
:10066000A0EAB2E48093CB019093CC01A093CD019A
:10067000B093CE0182E019C080E090E0A8E4B2E43B
:100680008093CF019093D001A093D101B093D20178
:1006900080E090E0ACE8B2E48093CB019093CC0191
:1006A000A093CD01B093CE0183E08093CA01FF9067
:1006B000EF90DF90CF900895CF92DF92EF92FF926C
:1006C0008823F1F02091CA019091C901291769F09E
:1006D0006091CF017091D0018091D1019091D201B0
:1006E0000E945F066093C2010BC09091C2018130ED
:1006F00021F0833029F4965F01C09B5F9093C20183
:10070000C090CB01D090CC01E090CD01F090CE0113
:100710006091C201772767FD7095872F972F0E9400
:100720009206A70196010E944207181634F4C701E9
:10073000B6010E945F066093C201C090CF01D090C5
:10074000D001E090D101F090D2016091C2017727F1
:1007500067FD7095872F972F0E949206A70196013B
:100760000E94F30587FF06C0C701B6010E945F061D
:100770006093C201FF90EF90DF90CF9008958F9229
:100780009F92AF92BF92CF92DF92EF92FF928090B2
:10079000B6019090B701A090B801B090B901C09097
:1007A000BA01D090BB01E090BC01F090BD01A7015F
:1007B0009601C501B4010E94420718167CF42091ED
:1007C000BE013091BF014091C0015091C101C701EC
:1007D000B6010E94420718160CF44CC0A7019601FE
:1007E000C501B4010E94F305882309F445C0A7019F
:1007F0009601C501B4010E94F30587FF0EC0209148
:10080000BE013091BF014091C0015091C101C701AB
:10081000B6010E94F30587FD31C0A7019601C5010D
:10082000B4010E944207181674F42091BE01309161
:10083000BF014091C0015091C101C701B6010E94A2
:10084000F30587FD1DC0A7019601C501B4010E94F3
:10085000F30587FF0EC02091BE013091BF0140918A
:10086000C0015091C101C701B6010E94420718168C
:100870003CF007C081E005C082E003C083E001C016
:1008800080E0FF90EF90DF90CF90BF90AF909F906F
:100890008F900895CF92DF92EF92FF92CF936B01EA
:1008A0007C010E9462028091BA019091BB01A091EB
:1008B000BC01B091BD018093B6019093B701A093A4
:1008C000B801B093B9018091BE019091BF01A09190
:1008D000C001B091C1018093BA019093BB01A09374
:1008E000BC01B093BD01A70196016091C401709154
:1008F000C5018091C6019091C7010E948E05609349
:10090000BE017093BF018093C0019093C10120E0AC
:1009100030E0A9010E94420718165CF40E94BF0350
:10092000C82FC701B6010E94DA028C2F0E945C0317
:1009300002C01092C201CF91FF90EF90DF90CF9054
:100940000C945E028CE987BD569A8BB180748BB98A
:100950000C945E028AB18C618AB98BB18C618BB9BF
:100960001092C80185E491E00E94750084E691E050
:100970000E94750084E791E00E94750084E891E090
:100980000E94750083E991E00E94750084EA91E07D
:100990000E9475008091C801811105C00E947000FD
:1009A0008093C801F7CF0E94A3020C94A20480E1B7
:1009B00090E03091C3012091C201321714F45E9A85
:1009C00001C05E9826B52536A0F316BC01970097A6
:1009D00081F7089580E895E20E9453000E94C700C5
:1009E00080E091E00E9475000E94AA048091C801F5
:1009F0001F928F9388E191E09F938F9383ED91E015
:100A00009F938F930E94A90783ED91E00E94750048
:100A100078940F900F900F900F900F900F9004E22A
:100A200011E083ED282E81E0382E0E94FA01EC01BE
:100A3000BC01882777FD8095982F0E9492060E941E
:100A40006E016B017C0120E030E040E251E40E9445
:100A500046072B013C0120E030E040E251E40E94D7
:100A6000F7050E945F064B015C018AE0889DB0019A
:100A7000899D700D1124882777FD8095982F0E94FD
:100A800092069B01AC01C301B2010E948E050E9437
:100A90005F067F936F939F928F92DF93CF931F9305
:100AA0000F933F922F920E94A90783ED91E00E943D
:100AB0007500C701B6010E946602C701B6010E9417
:100AC0004A040E94D7048DB79EB70A960FB6F894D1
:100AD0009EBF0FBE8DBFA9CFA1E21A2EAA1BBB1BC2
:100AE000FD010DC0AA1FBB1FEE1FFF1FA217B307FA
:100AF000E407F50720F0A21BB30BE40BF50B661F10
:100B0000771F881F991F1A9469F7609570958095D3
:100B100090959B01AC01BD01CF0108955058BB27B2
:100B2000AA270ED075C166D130F06BD120F031F418
:100B30009F3F11F41EF45BC10EF4E095E7FB51C139
:100B4000E92F77D180F3BA176207730784079507F7
:100B500018F071F49EF58FC10EF4E0950B2EBA2FAC
:100B6000A02D0B01B90190010C01CA01A0011124B3
:100B7000FF27591B99F0593F50F4503E68F11A165F
:100B8000F040A22F232F342F4427585FF3CF4695F0
:100B900037952795A795F0405395C9F77EF41F1612
:100BA000BA0B620B730B840BBAF09150A1F0FF0FDC
:100BB000BB1F661F771F881FC2F70EC0BA0F621FC8
:100BC000731F841F48F4879577956795B795F795B8
:100BD0009E3F08F0B3CF9395880F08F09927EE0F4A
:100BE000979587950895D9D008F481E008950CD0A1
:100BF0000FC107D140F0FED030F021F45F3F19F073
:100C0000F0C0511139C1F3C014D198F39923C9F33D
:100C10005523B1F3951B550BBB27AA276217730702
:100C2000840738F09F5F5F4F220F331F441FAA1FB6
:100C3000A9F333D00E2E3AF0E0E830D09150504076
:100C4000E695001CCAF729D0FE2F27D0660F771F24
:100C5000881FBB1F261737074807AB07B0E809F006
:100C6000BB0B802DBF01FF2793585F4F2AF09E3F9B
:100C7000510568F0B6C000C15F3FECF3983EDCF36D
:100C8000869577956795B795F7959F5FC9F7880F14
:100C9000911D9695879597F90895E1E0660F771F66
:100CA000881FBB1F621773078407BA0720F0621BF7
:100CB000730B840BBA0BEE1F88F7E095089504D0F0
:100CC0006894B111D9C00895BCD088F09F5790F0B6
:100CD000B92F9927B751A0F0D1F0660F771F881F61
:100CE000991F1AF0BA95C9F712C0B13081F0C3D07C
:100CF000B1E00895C0C0672F782F8827B85F39F01A
:100D0000B93FCCF3869577956795B395D9F73EF4BF
:100D100090958095709561957F4F8F4F9F4F089567
:100D2000E89409C097FB3EF4909580957095619585
:100D30007F4F8F4F9F4F9923A9F0F92F96E9BB273B
:100D40009395F695879577956795B795F111F8CFB7
:100D5000FAF4BB0F11F460FF1BC06F5F7F4F8F4F22
:100D60009F4F16C0882311F096E911C0772321F018
:100D70009EE8872F762F05C0662371F096E8862FB0
:100D800070E060E02AF09A95660F771F881FDAF707
:100D9000880F9695879597F90895990F0008550F34
:100DA000AA0BE0E8FEEF16161706E807F907C0F0F1
:100DB00012161306E407F50798F0621B730B840BF9
:100DC000950B39F40A2661F0232B242B252B21F4D3
:100DD00008950A2609F4A140A6958FEF811D811D73
:100DE000089597F99F6780E870E060E008959FEFAD
:100DF00080EC089500240A941616170618060906B2
:100E0000089500240A941216130614060506089580
:100E1000092E0394000C11F4882352F0BB0F40F408
:100E2000BF2B11F460FF04C06F5F7F4F8F4F9F4F48
:100E3000089557FD9058440F551F59F05F3F71F0CA
:100E40004795880F97FB991F61F09F3F79F0879531
:100E50000895121613061406551FF2CF4695F1DFBA
:100E600008C0161617061806991FF1CF869571054A
:100E7000610508940895E894BB2766277727CB017E
:100E800097F908958ADF08F48FEF08950BD0C0CF4B
:100E9000B1DF28F0B6DF18F0952309F0A2CFA7CF75
:100EA0001124EACFC6DFA0F3959FD1F3950F50E050
:100EB000551F629FF001729FBB27F00DB11D639F0C
:100EC000AA27F00DB11DAA1F649F6627B00DA11DB2
:100ED000661F829F2227B00DA11D621F739FB00D58
:100EE000A11D621F839FA00D611D221F749F3327C8
:100EF000A00D611D231F849F600D211D822F762F61
:100F00006A2F11249F5750408AF0E1F088234AF05D
:100F1000EE0FFF1FBB1F661F771F881F91505040A9
:100F2000A9F79E3F510570F05CCFA6CF5F3FECF371
:100F3000983EDCF3869577956795B795F795E79595
:100F40009F5FC1F7FE2B880F911D9695879597F9A6
:100F50000895AEE0B0E0EFEAF7E00C94510A0D8995
:100F60001E8986E08C831A8309838FEF9FE79E8317
:100F70008D83AE01475E5F4F6F89788DCE010196FC
:100F80000E94CB07EF81F885E00FF11F10822E96AB
:100F9000E4E00C946D0AACE0B0E0E1EDF7E00C9415
:100FA000430A7C016B018A01FC011782168283814E
:100FB00081FFBDC1CE0101964C01F7019381F6017D
:100FC00093FD859193FF81916F01882309F4ABC153
:100FD000853239F493FD859193FF81916F018532BC
:100FE00029F4B70190E00E94B309E7CF512C312CCE
:100FF00020E02032A0F48B3269F030F4803259F0D6
:10100000833269F420612CC08D3239F0803339F499
:10101000216026C02260246023C0286021C027FDF3
:1010200027C030ED380F3A3078F426FF06C0FAE0DA
:101030005F9E300D1124532E13C08AE0389E300D70
:101040001124332E20620CC08E3221F426FD6BC198
:10105000206406C08C3611F4206802C0883641F442
:10106000F60193FD859193FF81916F018111C1CFAD
:10107000982F9F7D9554933028F40C5F1F4FFFE30A
:10108000F9830DC0833631F0833771F0833509F071
:101090005BC022C0F801808189830E5F1F4F44240A
:1010A0004394512C540115C03801F2E06F0E711CAD
:1010B000F801A080B18026FF03C0652D70E002C05A
:1010C0006FEF7FEFC5012C870E94A8092C018301D7
:1010D0002C852F77222E17C03801F2E06F0E711C7D
:1010E000F801A080B18026FF03C0652D70E002C02A
:1010F0006FEF7FEFC5012C870E949D092C012C8585
:101100002068222E830123FC1BC0832D90E048160B
:101110005906B0F4B70180E290E00E94B3093A9416
:10112000F4CFF50127FC859127FE81915F01B7017E
:1011300090E00E94B30931103A94F1E04F1A51083F
:101140004114510471F7E5C0843611F0893639F540
:10115000F80127FF07C060817181828193810C5F54
:101160001F4F08C060817181882777FD8095982F77
:101170000E5F1F4F2F76B22E97FF09C09095809576
:10118000709561957F4F8F4F9F4F2068B22E2AE058
:1011900030E0A4010E94E509A82EA81844C08537B4
:1011A00029F42F7EB22E2AE030E025C0F22FF97FFD
:1011B000BF2E8F36C1F018F4883579F0B4C080376F
:1011C00019F0883721F0AFC02F2F2061B22EB4FE66
:1011D0000DC08B2D8460B82E09C024FF0AC09F2F3C
:1011E0009660B92E06C028E030E005C020E130E06E
:1011F00002C020E132E0F801B7FE07C060817181D2
:10120000828193810C5F1F4F06C06081718180E0F5
:1012100090E00E5F1F4FA4010E94E509A82EA818B8
:10122000FB2DFF77BF2EB6FE0BC02B2D2E7FA514F6
:1012300050F4B4FE0AC0B2FC08C02B2D2E7E05C0AF
:101240007A2C2B2D03C07A2C01C0752C24FF0DC0E5
:10125000FE01EA0DF11D8081803311F4297E09C061
:1012600022FF06C07394739404C0822F867809F01D
:10127000739423FD13C020FF06C05A2C731418F476
:10128000530C5718732C731468F4B70180E290E084
:101290002C870E94B30973942C85F5CF731410F436
:1012A000371801C0312C24FF12C0B70180E390E051
:1012B0002C870E94B3092C8522FF17C021FF03C091
:1012C00088E590E002C088E790E0B7010CC0822F6B
:1012D000867859F021FD02C080E201C08BE227FD33
:1012E0008DE2B70190E00E94B309A51438F4B7016C
:1012F00080E390E00E94B3095A94F7CFAA94F401D6
:10130000EA0DF11D8081B70190E00E94B309A110A0
:10131000F5CF332009F451CEB70180E290E00E946E
:10132000B3093A94F6CFF7018681978102C08FEF17
:101330009FEF2C96E2E10C945F0AFC01059061504E
:1013400070400110D8F7809590958E0F9F1F0895DB
:10135000FC016150704001900110D8F78095909584
:101360008E0F9F1F08950F931F93CF93DF93182F16
:10137000092FEB018B8181FD03C08FEF9FEF20C010
:1013800082FF10C04E815F812C813D81421753073F
:101390007CF4E881F9819F012F5F3F4F39832883D7
:1013A000108306C0E885F985812F0995892B29F7D7
:1013B0002E813F812F5F3F4F3F832E83812F902FC0
:1013C000DF91CF911F910F910895FA01AA2728303C
:1013D00051F1203181F1E8946F936E7F6E5F7F4F02
:1013E0008F4F9F4FAF4FB1E03ED0B4E03CD0670F7E
:1013F000781F891F9A1FA11D680F791F8A1F911DD1
:10140000A11D6A0F711D811D911DA11D20D009F420
:1014100068943F912AE0269F11243019305D319362
:10142000DEF6CF010895462F4770405D4193B3E04B
:101430000FD0C9F7F6CF462F4F70405D4A3318F0F2
:10144000495D31FD4052419302D0A9F7EACFB4E0A3
:10145000A6959795879577956795BA95C9F700975B
:101460006105710508959B01AC010A2E06945795FC
:10147000479537952795BA95C9F7620F731F841F53
:10148000951FA01D08952F923F924F925F926F92E9
:101490007F928F929F92AF92BF92CF92DF92EF9204
:1014A000FF920F931F93CF93DF93CDB7DEB7CA1B85
:1014B000DB0B0FB6F894DEBF0FBECDBF09942A88B0
:1014C000398848885F846E847D848C849B84AA8458
:1014D000B984C884DF80EE80FD800C811B81AA81E5
:1014E000B981CE0FD11D0FB6F894DEBF0FBECDBFB0
:0814F000ED010895F894FFCF0F
:1014F80053656E736F72657320696E6963696164A1
:101508006F732E2E2E0D0A0056616C6F72202564A3
:10151800200D0A0043656E74696D6574726F3A2018
:101528002564207C204C6974726F3A2025642C2530
:1015380064200D0A00496E666F726D65206F207613
:10154800616C6F7220646520636F6E74726F6C6576
:101558003A0D0A0031202D20302C35204C69747248
:101568006F0D0A0032202D20302C37204C69747200
:101578006F0D0A0033202D2031204C6974726F736F
:101588000D0A0034202D20312C32204C6974726FE2
:10159800730D0A0035202D20312C34204C697472CB
:0615A8006F730D0A000044
:00000001FF
